:02000004000BEF
:10000000FCFF0020010E0B00090D0B00090D0B0079
:10001000090D0B00090D0B00090D0B00090D0B005C
:10002000090D0B00090D0B00090D0B00090D0B004C
:10003000090D0B00090D0B00090D0B00090D0B003C
:10004000090D0B00090D0B00090D0B00090D0B002C
:100E0000FFF79CFFFFF7ACFFFFF782FF00F0D6F87B
:100E100000F00AF800F092F8FFF71AFFFFF736FF2C
:080E2000FFF7ECFEFCE7FEE722
:100C3C0081B01CF8019B0BF8019BBBEB0A0FF8D1A0
:040C4C0001B070473C
:100CCC0081B04FF000094FF0000CBDEB0A0F04DCB3
:100CDC00BDEB0B0F01DBD446EA464BF8049BBBEB98
:100CEC000A0FFAD1BCEB0A0F05DDE246D9F800B0C9
:0A0CFC000BF1040BF1E701B07047A3
:100C500081B0CDF800E00C4801460020FFF758FFB6
:100C600042F280510120FFF7B1FF46F6FE17C0F2B5
:100C7000180700BF00BF7F1EFDD100BF00BF00BF2F
:0C0C8000DDF800E001B07047140F0B001D
:100B100081B0CDF800E009E00846FFF76DFF0AE07C
:100B20000846FFF747FF06E0012004E00028F3D065
:0E0B30000128F5D0F8E7DDF800E001B07047CD
:1009F80081B0CDF800E000F20C0109688CB200F279
:100A0800080109688BB2011D09688AB201680846A5
:100A180091B29AB2A3B2FFF7ADFEFFF771FF20B112
:100A28000020FFF775FEFFF78FFE0020DDF800E0DD
:040A380001B0704752
:10077C0084B0CDF800E01FFA82FB1FFA83FC002244
:10078C008DF80420ADF8081003904A48FFF78CFE52
:10079C000398BDF808109DF80420ADF804100290E1
:1007AC00FFF7B4FE0298BDF804100025424C2570EA
:1007BC000025424C2570B0F5E13F06D9404CA042D3
:1007CC0003D83F4CB4FBF0F308E0B0F5E13F04D89C
:1007DC004FF4E134B4FBF0F300E00123ADF8041066
:1007EC000290FFF787FE0298BDF8041003F0FF0497
:1007FC00E5B2344C25701C0A04F07F04E5B2324C8F
:10080C002570B0F5E13F06D92F4C247844F08005D3
:10081C002D4C257005E02C4C247804F07F052A4CD7
:10082C002570ADF80410FFF771FEBDF8041000251B
:10083C00264C25700BE042F00100C0B20EE042F0F5
:10084C000200C0B20AE042F00300C0B206E0012987
:10085C00F1D00229F3D00329F5D0F4E74FEA8C0448
:10086C00A4B240EA04044FEACB05ADB2E4B22C4387
:10087C00E4B204F07F05154C25700025144C25704E
:10088C000025144C2570144D144C2560144D154C3A
:10089C002560154D154C2560154D164C2560164CD4
:1008AC00247844F00105144C2570DDF800E004B008
:1008BC00704700BF4C0E0B00F0270F4001240F4077
:1008CC0060E3160000240F4001240F4003240F4066
:1008DC0004240F4002240F4051070B001800002085
:1008EC0019070B001C00002009090B002000002038
:0C08FC0009060B002400002030270F40EC
:1004B40081B0CDF800E040F2000A81464FEA8A019B
:1004C40009EB01010968B1F1FF3F12D009F13401D0
:1004D4004FEA8A03C91809680A4609EB0301096847
:1004E40008461146FFF7C8FF0AF1010A1FFA8AFA03
:0A04F400E4E7DDF800E001B0704716
:10047C0082B0CDF800E000F0FF02130902F00F0289
:10048C001446D8B2FFF70CFF012212B2A240ADF80D
:10049C00042000460A469DF80410FFF77DFFDDF8A6
:0604AC0000E002B0704701
:1002AC0081B027E028484DE028484BE0284849E039
:1002BC00284847E0284845E0284843E0284841E0E2
:1002CC0028483FE028483DE028483BE0284839E0F2
:1002DC00284837E0284835E0284833E0284831E002
:1002EC0028482FE028482DE028482BE0284829E012
:1002FC00284827E00028D5D00128D5D00228D5D011
:10030C000328D5D00428D5D00528D5D00628D5D09B
:10031C000728D5D00828D5D00928D5D00A28D5D07B
:10032C000B28D5D00C28D5D00D28D5D00E28D5D05B
:10033C000F28D5D01028D5D01128D5D01228D5D03B
:10034C001328D5D001B07047001008402010084089
:10035C00401008406010084080100840A010084071
:10036C00C0100840E010084000110840201108405F
:10037C00401108406011084080110840A01108404D
:10038C00C0110840E011084000120840201208403B
:08039C00401208406012084005
:1003A40081B01446314B984203D8314B984200D364
:1003B40000E058E02E4BC31A03F01F0303B152E0D0
:1003C400064600F5A0624FF6FF7304EA03031846DD
:1003D400284B04EA03031B0C40F20008CFB2014689
:1003E4001846B8F1080F3ED201231BB203FA08F3F2
:1003F4001BB21CB207EA0403A34231D101F44053F7
:100404008BB14FEA8803F5182C686FF4405304EA63
:1004140003032B604FEA8803F51801F440542B685A
:1004240023432B601CE04FEA8803F5182C68114B1A
:1004340004EA03032B604FEA8803F41823680B4390
:1004440023604FEA8803D5182C686FF0FF0304EA91
:1004540003032B604FEA8803D41823680343236003
:1004640008F10108BDE701B0704700BFC0120840A1
:08047400001008400000FFFF2A
:1005180081B00448007800F07F010248017001B002
:08052800704700BF03240F40DF
:1005000081B00448007840F080010248017001B0D9
:08051000704700BF03240F40F7
:1009080081B00548007800F00100C0B208B10120AC
:0C09180000E0002001B0704705240F40F3
:1007180082B0CDF800E08DF80400FFF7F9FE084933
:10072800097801F02001C9B201B9F8E79DF8041071
:1007380001F0FF0203490A70DDF800E002B07047DB
:0807480005240F4000240F40BE
:1007500081B0CDF800E0FFF7DFFE0648007800F03A
:100760000100C0B200B9F8E703480078DDF800E006
:0C07700001B0704705240F4000240F402A
:1009B40081B0CDF800E000F20C0109688CB200F2BD
:1009C400080109688BB2011D09688AB201680846EA
:1009D40091B29AB2A3B2FFF7CFFEFFF793FF20B113
:1009E4000020FFF797FEFFF7B1FE0020DDF800E0DE
:0409F40001B0704797
:100BCC0081B0CDF800E009E00846FFF7D9FE0AE055
:100BDC000846FFF751FF06E0012004E00028F3D09F
:0E0BEC000128F5D0F8E7DDF800E001B0704711
:10098C0081B0CDF800E0002300220321FFF7F0FE38
:10099C00034A04490A600020DDF800E001B070470A
:0809AC0019070B000C000020EC
:100A840081B0CDF800E0002300220321FFF774FEBB
:100A9400034A04490A600020DDF800E001B0704711
:080AA40019070B000C000020F3
:100C8C0081B0CDF800E00B490B48FFF753FF0B4840
:100C9C000221FFF75DFF46F6FE17C0F2180700BFF2
:100CAC0000BF7F1EFDD100BF00BF00BFDDF800E01C
:100CBC0001B07047300F0B00B40E0B000000002089
:100B400081B0CDF800E003460846FFF785FF184660
:0C0B5000FFF796FFDDF800E001B07047F1
:100A5800026806490A60011D0A6805490A6000F231
:100A680008010A6803490A60704700BF280000208F
:080A78002C00002030000020DA
:020A80007047BD
:100B5C0083B0CDF800E0024610460D228DF8082037
:100B6C000A228DF809201FE0FFF79AFF23E0027894
:100B7C002AB10190FFF794FF0198401CF7E71AE0A7
:100B8C0002782AB10190FFF78BFF0198401CF7E720
:100B9C0002AA1046FFF784FF0DF109021046FFF779
:100BAC007FFF08E0062007E00029DDD00129DED018
:100BBC000229E5D0F6E70020DDF800E003B070472D
:100AAC0081B0CDF800E00178CCB2E0B2034C246800
:100ABC00A0470020DDF800E001B070470C000020DA
:1009340082B0CDF800E08DF80400FFF7F7FD084918
:10094400097801F02001C9B201B9F8E79DF8041053
:1009540001F0FF0203490A70DDF800E002B07047BD
:0809640005280F4000280F4098
:1005300081B00448007800F07F010248017001B0EA
:08054000704700BF03280F40C3
:10092400024A117860F30001117070479013084077
:10096C00024A117860F345111170704784130840E6
:10097C00024A117860F3C30111707047801308406C
:10070800024A117860F3041111707047831308408E
:1005C800024A117860F3861111707047831308404E
:1005D800024A117860F304111170704780130840C3
:1005E800024A117860F30411117070478B130840A8
:1005B800024A117860F300011170704783130840F4
:1005A800024A117860F345111170704788130840AA
:10059800024A117860F304111170704788130840FB
:10054800024A117860F30001117070478113084066
:10058800024A117860F3C711117070478013084050
:10056800024A117860F341011170704790130840F6
:10057800024A117860F3C71111707047841308405C
:10055800024A117860F34511117070478E130840F4
:1005F800024A117860F304111170704783130840A0
:1006C800024A117860F3861111707047831308404D
:1006B800024A117860F304111170704780130840E2
:1006A800024A117860F38201117070478013084084
:1006F800024A117860F3820111707047891308402B
:1006E800024A117860F34511117070478813084069
:1006D800024A117860F304111170704788130840BA
:10063400024A117860F30001117070478113084079
:10062400024A117860F3C7111170704780130840B3
:100BFC0082B0CDF800E0FFF771FF012807D1FFF7B5
:100C0C0077FF8DF8040001A80021FFF7A1FFDDF8A4
:060C1C0000E002B0704789
:100AE80081B0CDF800E0FFF7EDFFDDF800E001B0E0
:020AF800704745
:100ACC0081B0CDF800E0044C2468A047C0B2DDF83A
:0C0ADC0000E001B0704700BF30000020B7
:1006080081B00548007800F04000C0B208B1012070
:0C06180000E0002001B0704705240F40F6
:10067C0081B0CDF800E0FFF755FF0648007800F098
:10068C000100C0B200B9F8E703480078DDF800E0DB
:0C069C0001B0704705280F4000280F40F7
:1006600081B00548007800F00100C0B208B1012057
:0C06700000E0002001B0704705280F409A
:1006440081B00548007800F04000C0B208B1012034
:0C06540000E0002001B0704705280F40B6
:100AFC0081B0CDF800E0FFF79BFFDDF800E001B01E
:020B0C00704730
:100A3C0081B0CDF800E0044C2468A047C0B2DDF8CA
:0C0A4C0000E001B0704700BF2C0000204B
:100D600081B0CDF800E01F4B1F4A204C204800689E
:100D700040F002011E480160012A08D0032A06D073
:100D8000042A04D0102A02D0302A00D002E01948E8
:100D9000026002E0012117480160C4F3C002164955
:100DA000086862F3C3000860C4F38002124908684F
:100DB00062F382000860C4F340020F49086862F3DE
:100DC00041000860C4F300020B49086862F30000A8
:100DD0000860FFF727FF09480360DDF800E001B075
:100DE000704700BFE00100000100000000000000AB
:100DF00008E000E00401084008A4004008010840A1
:100C240046F6FE17C0F2180700BF00BF7F1EFDD1B5
:080C340000BF00BF00BF7047C4
:100E280081B004490448016004490548016001B0E3
:100E3800704700BF80BB00001000002000000000C9
:040E48001400002072
:080D080081B0FEE701B0704765
:100D100081B04EF68850CEF20000016841F47001B7
:100D2000016000BF00BF00BF00BFF1EE100A40F439
:0A0D30004000E1EE100A01B0704728
:100D3C0081B0DFF81000DFF810100860D0F800D098
:100D4C0000F004B800000B0008ED00E000BF01B09B
:020D5C007047DE
:100F3C0000B5DFF814B0DFF814A0DFF814C0FFF729
:100F4C0077FE00BD704700BF000000200C000020A1
:040F5C00240F0B0053
:100FBC0000B5DFF810B0DFF810A0FFF781FE00BD20
:0C0FCC00704700BF00000020340000202F
:100E4C008500000084000000FFFFFFFF0000000091
:100E5C000000000000000000000000000000000086
:100E6C000000000000000000000000000000000076
:100E7C000000000000100000001000000000000046
:100E8C000000000000000000000000000000000056
:100E9C000000000000000000000000000000000046
:080EAC0000000000000000003E
:100EB40025090B006D090B007D090B0009070B00C8
:100EC400C9050B00D9050B00E9050B00B9050B009A
:100ED400A9050B0099050B0049050B0089050B00BA
:100EE400FFFFFFFFFFFFFFFFFFFFFFFFFFFFFFFF0E
:100EF400FFFFFFFFFFFFFFFFFFFFFFFFFFFFFFFFFE
:100F0400FFFFFFFFFFFFFFFFFFFFFFFFFFFFFFFFED
:100F14008025000003000000000000000000000025
:0C0F2400496E697469616C697A6564004B
:0C0F300019070B0051070B0009090B000A
:00000001FF
