:10000000FCFF00208D120000011100000111000012
:100010000111000001110000011100000111000098
:100020000111000001110000011100000111000088
:100030000111000001110000011100000111000078
:100040000111000001110000011100000111000068
:100050000111000001110000011100000111000058
:100060000111000001110000011100000111000048
:100070000111000001110000011100000111000038
:100080000111000001110000011100000111000028
:100090000111000001110000011100000111000018
:1000A0000111000001110000011100000111000008
:1000B00001110000011100000111000001110000F8
:1000C00001110000011100000111000001110000E8
:1000D00001110000011100000111000001110000D8
:1000E00001110000011100000111000001110000C8
:1000F00001110000011100000111000001110000B8
:10128C00FFF75CFFFFF73AFF00F018FAFFF74CFF8F
:10129C0000F0D4F9FFF7D6FEFFF70CFFFFF7F0FED6
:0412AC00FCE7FEE776
:1010340081B01CF8019B0BF8019BBBEB0A0FF8D1A4
:0410440001B0704740
:100FF80081B04FF000094FF0000CBDEB0A0F04DC84
:10100800BDEB0B0F01DBD446EA464BF8049BBBEB68
:101018000A0FFAD1BCEB0A0F05DDE246D9F800B099
:0A1028000BF1040BF1E701B0704773
:1010500081B0CDF800E00C4801460020FFF74EFFBC
:1010600042F280510020FFF72BFF44F67D77C0F25B
:10107000120700BF7F1EFDD100BF00BF00BF00BF31
:0C108000DDF800E001B0704748100000EF
:100EFC0081B0CDF800E009E00846FFF75FFF0AE09B
:100F0C000846FFF7ADFF06E0012004E00028F3D00F
:0E0F1C000128F5D0F8E7DDF800E001B07047DD
:100DC80081B0CDF800E00068FFF76EFF0020DDF885
:060DD80000E001B07047CD
:100CB00081B0CDF800E084460B4A0C490A600C4A2A
:100CC0000C490A600C4A0D490A600D4A0D490A6038
:100CD0000D48FFF791FE61460C48FFF7D7FEDDF89F
:100CE00000E001B0704700BF590B00002400002055
:100CF000110D000028000020990C00002C0000209D
:100D0000090C0000300000206814000000180040AA
:1009F80081B0CDF800E040F2000A814609F1D80143
:100A080009788A453AD20C210AFB01F109EB010168
:100A18008B460BF1080109781F2915D10BF1080144
:100A28000978CCB20BF1060109888BB20BF10401ED
:100A380009888AB2DBF80010084691B2002210B487
:100A4800FFF744FE01B014E00BF108010978CCB2BD
:100A58000BF1060109888BB20BF1040109888AB2EF
:100A6800DBF80010084691B2FF2210B4FFF72EFE03
:100A780001B00AF1010A5FFA8AFABFE7DDF800E07F
:040A880001B0704702
:1006D40083B0CDF800E08DB20146D0B2BDF90C2054
:1006E40001F0010414B12F02BFB200E0AFB28F4C8D
:1006F4000C1B640965018D4C6419A0468C4CA04206
:1007040007D108F10406FD43ADB234882C4034808F
:1007140007E0884CA04204D108F104052C883C432E
:100724002C8040F2010403EA0404A4B23CB108F1B1
:100734000606FD43ADB234882C4034800AE040F212
:10074400020403EA0404A4B224B108F106052C88C7
:100754003C432C8040F2040403EA0404A4B23CB1F8
:1007640008F10806FD43ADB234882C4034800AE019
:1007740040F2080403EA0404A4B224B108F1080511
:100784002C883C432C8040F2100403EA0404A4B2F5
:100794003CB108F11806FD43ADB234882C403480D6
:1007A4000AE040F2200403EA0404A4B224B108F1EC
:1007B40018052C883C432C8040F2400403EA0404CE
:1007C400A4B23CB108F11A06FD43ADB234882C4002
:1007D40034800AE040F2800403EA0404A4B224B1A1
:1007E40008F11A052C883C432C8003F48074A4B2CD
:1007F4007CB908F10A06FD43ADB234882C4034803C
:1008040008F10C06FD43ADB234882C40348000203E
:1008140087E01F2A01DD012083E0FFF7BDFD0020F2
:10082400B9B2C7B24046102F80F07A8021FA07F49B
:10083400A4B204F00104A4B2002C00F06E8000F213
:100844000A06CD43ADB234882C40348000F20C0645
:10085400CD43ADB234882C40348003F48064A4B218
:100864002CB1ADF806100024ADF808400DE003F4F7
:100874000064A4B22CB10024ADF80640ADF8081011
:1008840003E0ADF80610ADF8081000F20A0635884A
:10089400BDF8064045EA0404348000F20C063588AD
:1008A400BDF8084045EA04043480234C041B640961
:1008B400ADF80440214CA24218D0BDF80440E40035
:1008C400A4B265001E4C65197C08E4B264002E19BC
:1008D40007F00104E4B2E5002DB240F2FF04AC409D
:1008E400A4B2E543ADB234882C403480BDF8044052
:1008F400E400A4B26500124C65197C08E4B26400FB
:100904002E1907F00104E4B2E5002DB294B204FA02
:1009140005F5ADB234882C4334807F1CFFB282E7E6
:100924000020DDF800E003B0704700BF004C004039
:100934000000000001000000004C00400000000026
:040944000850004017
:10039C0081B042F65251034801800221024801808B
:0C03AC0001B070470050004002500040BB
:100A8C0081B0CDF800E007460C463846FFF714FE5F
:100A9C0040F280013846FFF75FFF40F20001384614
:100AAC00FFF74CFF40F200013846FFF705FD40F21E
:100ABC0000013846FFF710FD40F200013846FFF701
:100ACC00E9FC40F200013846FFF7E6FD21463846C6
:100ADC00FFF732FD3846FFF725FDDDF800E001B0E9
:020AEC00704751
:0E06C40081B0018841F00101018001B0704752
:1009640081B003884FF63F7203EA020202800288D4
:080974000A43028001B0704744
:1009480081B031B903884DF6FF7203EA02020280D2
:0C09580002E002880A43028001B07047F0
:1004C40081B0B1F5006F03D102880A43028005E0D0
:1004D40003884FF2FF7203EA0202028001B0704700
:1004E40081B019E0038847F6FF7203EA0202028032
:1004F40019E0028842F40042028002880A43028022
:1005040011E0028842F40042028003884BF6FF7235
:1005140003EA0202028006E00029E3D0B1F5804F2D
:0A052400E7D00029EDD001B07047C8
:1004A00081B0B1F5807F04D1028842F4807202806D
:1004B00005E003884FF6FF6203EA0202028001B002
:0204C000704783
:1006A40081B0B1F5805F03D102880A43028005E07E
:1006B40003884EF6FF7203EA0202028001B070471B
:1005440088B0CDF800E005460E4604AA1046FFF731
:10055400CBFE04AA11462846FFF72CFF00EE900AB2
:10056400F8EE600A00EE106AB8EE400A80EE800AE7
:10057400B0EE401A01AA1046FFF738FFDDED010A7C
:10058400FCEE600A10EE902A92B291B2414A00EE5B
:10059400902A20EE200ABCEE400A10EE100A80B227
:1005A40005F2080423884FF6FE7203EA0202228051
:1005B40010292ED905F208031A8842F001021A8084
:1005C400B3EE000A81EE000ABCEE400A10EE102AD7
:1005D40092B2ADF80820B3EE000AC1EE000AB3EE01
:1005E400000A81EE000ABCEE400A10EE102A92B214
:1005F40000EE102AB8EE400A70EEC00AB3EE000A0C
:1006040020EE800ABCEE400A10EE102A92B2ADF839
:100614000A2020B90022ADF80C20284616E0012457
:100624002946242C11D263001B4AD2181288904206
:1006340008D2621E12B25300184AD2181288ADF8BA
:100644000C2002E0641CE4B2EBE70846831D0022A0
:100654001A80841D2388BDF8082043EA0202228000
:1006640000F208031A8802F001021A8000F208045A
:10067400BDF80C2013029BB2BDF80A20120192B2FD
:1006840013439BB222881A432280DDF800E008B0AD
:10069400704700BF00401C46EC150000A415000084
:1002EC0082B0CDF800E004462849096801F4E061C9
:1002FC00090A08462549096801F0E061090E0A4619
:10030C00214601911146FFF751FF019908601F49E1
:10031C00096801F07001090908461C49096801F4D3
:10032C00E001090D0A4604F2080101911146FFF79C
:10033C003DFF019908601549096801F07001090930
:10034C0008461249096801F0E041090F0A4604F217
:10035C000C0101911146FFF729FF019908600B4927
:10036C00096801F0070108460849096801F4E02111
:10037C00090C0A46211D01911146FFF717FF01993F
:10038C000860DDF800E002B0704700BF08040140CF
:1001B80081B0CDF800E002460846FFF7F1FFC3B270
:1001C80071E0424A126802F00102D2B140F2010025
:1001D800FFF792FF3D4A126802F001028AB13C4AD9
:1001E800126802F400422AB14FF4FA3292FBF3F299
:1001F800104666E048F20002B2FBF3F292B290B207
:100208005FE0344A1268B2FBF3F2104659E02F4A15
:10021800126802F00202D2B140F20200FFF76CFF4E
:100228002A4A126802F002028AB1294A126802F4C4
:1002380000422AB14FF4FA3292FBF3F2104640E042
:1002480048F20002B2FBF3F292B290B239E0224ACD
:100258001268B2FBF3F2104633E0204A1268B2FB90
:10026800F3F210462DE01A4A126802F400422AB14D
:100278004FF4FA3292FBF3F2104622E048F2000201
:10028800B2FBF3F292B290B21BE0FFF74BFFB0FB68
:10029800F3F2104615E0124A1268B2FBF3F2104668
:1002A8000FE000200DE0002A3FF48BAF052AAED006
:1002B800012AD2D0022AD6D0032AE6D0042AEAD0CC
:1002C800EFE7DDF800E001B0704700BF48040140E7
:1002D800300401401C000020200000200C000020F9
:0402E80010000020E2
:1001A80081B0012109B2814009B208B201B070479B
:1001000081B0074A07490A600749096841EA0002C5
:1001100005490A60012203490A6001B0704700BF27
:0C0120005A690000000401405004014036
:10012C0082B01748006800F4E02114E015480190F3
:10013C0023E01548019020E0144801901DE014487C
:10014C0001901AE01348019017E01348019014E055
:10015C000020019011E00029E8D0B1F5803FE8D0F3
:10016C00B1F5003FE8D0B1F5403FE8D0B1F5802FB4
:10017C00E8D0B1F5A02FE8D0EAE7019802B07047BB
:10018C000404014060E31600C0C62D00808D5B00A6
:0C019C00001BB70000366E01006CDC0296
:1003B80081B0028802F0C00292B2920992B290B261
:1003C8000AB900200EE0012802D10A68104609E0A7
:1003D800022802D0032800D004E001F20C021268BF
:0803E8001046FFE701B0704769
:1003F00082B08DED010A9DED010AB5EEC00AF1EE65
:1004000010FA0ADBDDED010AB7EE000AF4EEC00ACD
:10041000F1EE10FA01DA012100E0002189B9DDEDE9
:10042000010ABFEE000AF4EEC00AF1EE10FA07DD91
:100430009DED010AB5EEC00AF1EE10FA00DC00E015
:1004400008E04FF0000100EE101A00ED000A9DEDEB
:10045000010A23E001A90968C90D01F0FF017F39F4
:1004600089B2182908D99DED010A00ED000A4FF064
:10047000000100EE101A11E09DED010ABDEE400AE8
:1004800010EE101A00EE101AB8EEC00A00ED000AC5
:1004900050ED000A9DED010A30EE600A02B070478F
:1005300081B002884FF6FE7102EA0101018001B02C
:02054000704702
:100E6C0081B0CDF800E00068FFF7D4FE0020DDF87B
:060E7C0000E001B0704728
:100C200081B0CDF800E084460B4A0C490A600C4ABA
:100C30000C490A600C4A0D490A600D4A0D490A60C8
:100C40000D48FFF7D9FE61460C48FFF71FFFDDF89E
:100C500000E001B0704700BFF10A0000240000204E
:100C6000250B0000280000200D0B00002C000020A8
:100C7000810C0000300000208C13000000140040A4
:100EC00081B0CDF800E00DE00846FFF7BDFF10E06F
:100ED0000846FFF7A7FF0CE00846FFF763FF08E0AE
:100EE000012006E00028EFD00128F1D01028F3D02F
:0A0EF000F6E7DDF800E001B07047FE
:100E480081B0CDF800E0FFF72FFF044A04490A609B
:100E58000020DDF800E001B0704700BF590B00002A
:040E68001400002052
:100E240081B0CDF800E0FFF7F9FE044A04490A60F6
:100E34000020DDF800E001B0704700BFF10A0000B7
:040E44001400002076
:100DA40081B0CDF800E0FFF7C9FF044A04490A60A6
:100DB4000020DDF800E001B0704700BF3D0B0000EB
:040DC40014000020F7
:100D400081B0CDF800E084460B4A0C490A600C4A99
:100D50000C490A600C4A0D490A600D4A0D490A60A7
:100D60000D48FFF749FE61460C48FFF78FFEDDF89E
:100D700000E001B0704700BF3D0B000024000020E0
:100D8000A50B0000280000208D0B00002C00002087
:100D9000750B000030000020B01200000010004071
:1010C00081B0CDF800E00B490B48FFF77BFF0B48E0
:1010D0000221FFF73FFF44F67D77C0F2120700BF01
:1010E0007F1EFDD100BF00BF00BF00BFDDF800E0E4
:1010F00001B07047B410000044150000000000204B
:100FC40081B0CDF800E003460846FFF707FF184656
:0C0FD400FFF7E4FEDDF800E001B070471C
:100DE000026806490A60011D0A6805490A6000F2A6
:100DF00008010A6803490A60704700BF38000020F4
:080E0000340000203C0000203A
:020DA00070479A
:100F540083B0CDF800E0024610460D228DF808203B
:100F64000A228DF809201FE0FFF798FF23E002789A
:100F74002AB10190FFF792FF0198401CF7E71AE0AD
:100F840002782AB10190FFF789FF0198401CF7E726
:100F940002AA1046FFF782FF0DF109021046FFF77F
:100FA4007DFF08E0062007E00029DDD00129DED01E
:100FB4000229E5D0F6E70020DDF800E003B0704731
:100EA00081B0CDF800E00178CCB2A0B2034C246848
:100EB000A0470020DDF800E001B0704714000020DA
:100B3C0081B0CDF800E081B20348FFF739FFDDF852
:0C0B4C0000E001B0704700BF0010004046
:1009BC0081B0ADF800100146BDF8000001F20A024A
:1009CC00128802F0010292B202B1F7E701F20E02B4
:0609DC00108001B070471D
:100AF00081B0CDF800E081B20348FFF75FFFDDF879
:0C0B000000E001B0704700BF001400408E
:100B580081B0CDF800E081B20348FFF72BFFDDF844
:0C0B680000E001B0704700BF0018004022
:100BBC0081B0CDF800E081B20348FFF7F9FEDDF813
:0C0BCC0000E001B0704700BF001C0040BA
:10108C0082B0CDF800E0FFF755FF012807D1FFF73C
:10109C0047FF8DF8040001A80021FFF755FFDDF88C
:0610AC0000E002B07047F5
:100F400081B0CDF800E0FFF75FFFDDF800E001B011
:020F50007047E8
:100E080081B0CDF800E0044C2468A047C0B2DDF8FA
:0C0E180000E001B0704700BF3C0000206B
:100BA40081B0CDF800E00348FFF7E6FEDDF800E091
:080BB40001B070470010004081
:10097C0081B000F21C01098801F0010189B201B9B2
:0E098C00F7E700F20C01098888B201B070474D
:100B8C0081B0CDF800E00348FFF726FFDDF800E068
:080B9C0001B070470010004099
:1009E40081B000F21C01098801F0010188B201B054
:0209F40070474A
:100B740081B0CDF800E00348FFF70EFFDDF800E098
:080B840001B0704700100040B1
:10099C0081B000F20A01098801F0010189B2002935
:1009AC0040F2000100D10121C9B2C8B201B07047B8
:100B240081B0CDF800E00348FFF726FFDDF800E0D0
:080B340001B0704700140040FD
:100B0C0081B0CDF800E00348FFF766FFDDF800E0A8
:080B1C0001B070470014004015
:100C800081B0CDF800E00348FFF788FEDDF800E012
:080C900001B0704700140040A0
:100D100081B0CDF800E00348FFF730FEDDF800E0D9
:080D200001B07047001800400B
:100C980081B0CDF800E00348FFF7A0FEDDF800E0E2
:080CA80001B070470018004084
:100C080081B0CDF800E00348FFF7C4FEDDF800E04E
:080C180001B070470018004014
:100BD80081B0CDF800E00348FFF7CCFEDDF800E077
:080BE80001B07047001C004041
:100BF00081B0CDF800E00348FFF7F4FEDDF800E037
:080C000001B07047001C004028
:100D280081B0CDF800E00348FFF734FEDDF800E0BD
:080D380001B07047001C0040EF
:100F2C0081B0CDF800E0FFF7A7FFDDF800E001B0DD
:020F3C007047FC
:100E840081B0CDF800E0044C2468A047C0B2DDF87E
:0C0E940000E001B0704700BF34000020F7
:1011480083B0CDF800E0374B374C384D384E394F27
:10115800394845F680213948018004F00700052800
:1011680004D004F07000502800D00BE0012252B2E5
:1011780033480280002149B2324801803248028057
:1011880032480180802132480160019502961E464E
:1011980025463A46029B019C2E48006800F4807060
:1011A80000B1F9E72C492D480160019511463246F6
:1011B8001D46019B2748006800F4807000B1F9E7DC
:1011C80027480160274801602749284801602848C6
:1011D800026028480360200D00F0070028B944F099
:1011E8000301254801602A4610E044F4803040F0AD
:1011F8000301214801602A462048006830B1FFF702
:10120800EBFE012149B21E480160F5E700211748AD
:10121800016042F4B44109480180DDF800E003B000
:10122800704700BF00000500330000000300010004
:10123800840000000010000080BB00000C48004043
:101248004CA509428CA5094248A5094288A509422E
:10125800143004E00400014001005A690000014014
:1012680010100140141001405A69000000040140A8
:1012780004040140080401400C0401400489204290
:04128800048A204272
:100FE00040F20907C0F2000700BF00BF7F1EFDD11D
:080FF00000BF00BF00BF704705
:1011340081B002490248016001B0704780BB0000E1
:04114400180000206F
:0811000081B0FEE701B0704769
:1011080081B04EF68850CEF20000016841F47001BB
:10111800016000BF00BF00BF00BFF1EE100A40F43D
:0A1128004000E1EE100A01B070472C
:1016480000B5DFF814B0DFF814A0DFF814C0FFF716
:10165800EDFC00BD704700BF000000201400002012
:041668003416000034
:1016C80000B5DFF810B0DFF810A0FFF791FC00BDFF
:0C16D800704700BF000000204000002010
:0410480080250000FF
:0C10B400590B0000110D0000990C000009
:1012B000004C00400400050500000000004C004008
:1012C000080005050000000000000000000000000C
:1012D000000000000000000000000000000000000E
:1012E00000000000000000000000000000000000FE
:1012F00000000000000000000000000000000000EE
:1013000000000000000000000000000000000000DD
:1013100000000000000000000000000000000000CD
:1013200000000000000000000000000000000000BD
:1013300000000000000000000000000000000000AD
:10134000000000000000000000000000000000009D
:10135000000000000000000000000000000000008D
:10136000000000000000000000000000000000007D
:10137000000000000000000000000000000000006D
:0C1380000000000000000000020000005F
:10138C00004C00400004050500000000004C00402B
:10139C00000805050000000000000000000000002F
:1013AC000000000000000000000000000000000031
:1013BC000000000000000000000000000000000021
:1013CC000000000000000000000000000000000011
:1013DC000000000000000000000000000000000001
:1013EC0000000000000000000000000000000000F1
:1013FC0000000000000000000000000000000000E1
:10140C0000000000000000000000000000000000D0
:10141C0000000000000000000000000000000000C0
:10142C0000000000000000000000000000000000B0
:10143C0000000000000000000000000000000000A0
:10144C000000000000000000000000000000000090
:0C145C0000000000000000000200000082
:10146800204C00400400050500000000204C00400E
:101478000800050500000000000000000000000052
:101488000000000000000000000000000000000054
:101498000000000000000000000000000000000044
:1014A8000000000000000000000000000000000034
:1014B8000000000000000000000000000000000024
:1014C8000000000000000000000000000000000014
:1014D8000000000000000000000000000000000004
:1014E80000000000000000000000000000000000F4
:1014F80000000000000000000000000000000000E4
:1015080000000000000000000000000000000000D3
:1015180000000000000000000000000000000000C3
:1015280000000000000000000000000000000000B3
:0C153800000000000000000002000000A5
:10154400FFFFFFFFFFFFFFFFFFFFFFFFFFFFFFFFA7
:10155400FFFFFFFFFFFFFFFFFFFFFFFFFFFFFFFF97
:10156400FFFFFFFFFFFFFFFFFFFFFFFFFFFFFFFF87
:10157400FFFFFFFFFFFFFFFFFFFFFFFFFFFFFFFF77
:10158400FFFFFFFFFFFFFFFFFFFFFFFFFFFFFFFF67
:10159400FFFFFFFFFFFFFFFFFFFFFFFFFFFFFFFF57
:1015A40000000100020004000800100020001100E7
:1015B400210022004400250049004A005200920004
:1015C40053005500AA006B00AD00B500B600D6006C
:1015D400B700BB00DD00ED00EE00BF00DF00EF0050
:0815E400F700FB00FD00FE0012
:1015EC0000001102CB024303E903E40496058606CE
:1015FC006308B008C709B80B070DF70DA90EA30FA8
:10160C00BE101A118A13531673176E1820190B1A61
:10161C00591BEB1B4F1DB51E441F8D2010217C2127
:08162C002F222C23D2234824B5
:0C163400496E697469616C697A65640034
:04164000102700006F
:0416440000366E01FD
:00000001FF
