:10000000FCFF02208D110000451100004511000089
:100010004511000045110000451100004511000088
:100020004511000045110000451100004511000078
:100030004511000045110000451100004511000068
:100040004511000045110000451100004511000058
:100050004511000045110000451100004511000048
:100060004511000045110000451100004511000038
:100070004511000045110000451100004511000028
:100080004511000045110000451100004511000018
:100090004511000045110000451100004511000008
:1000A00045110000451100004511000045110000F8
:1000B00045110000451100004511000045110000E8
:1000C00045110000451100004511000045110000D8
:1000D00045110000451100004511000045110000C8
:1000E00045110000451100004511000045110000B8
:1000F00045110000451100004511000045110000A8
:100100004511000045110000451100004511000097
:100110004511000045110000451100004511000087
:100120004511000045110000451100004511000077
:100130004511000045110000451100004511000067
:100140004511000045110000451100004511000057
:100150004511000045110000451100004511000047
:100160004511000045110000451100004511000037
:100170004511000045110000451100004511000027
:100180004511000045110000451100004511000017
:080190004511000045110000BB
:10118C0000F010F8FFF7DCFF00F0C8FBFFF7EEFFF4
:10119C0000F084FBFFF77EFFFFF7AEFFFFF798FF31
:0411AC00FCE7FEE777
:1010500081B01CF8019B0BF8019BBBEB0A0FF8D188
:0410600001B0704724
:1010640081B04FF000094FF0000CBDEB0A0F04DC17
:10107400BDEB0B0F01DBD446EA464BF8049BBBEBFC
:101084000A0FFAD1BCEB0A0F05DDE246D9F800B02D
:0A1094000BF1040BF1E701B0704707
:1010A00081B0CDF800E00C4801460020FFF770FF4A
:1010B00042F280510020FFF747FF40F6FE07C0F2E2
:1010C0003D0700BF00BF7F1EFDD100BF00BF00BFB6
:0C10D000DDF800E001B07047801800005F
:100F900081B0CDF800E00DE00846FFF7E1FE10E07B
:100FA0000846FFF7FDFE0CE00846FFF719FF08E0D2
:100FB000012006E00028EFD00128F1D00228F3D06C
:0A0FC000F6E7DDF800E001B070472D
:100D600081B0CDF800E00D4D00F20C0109688CB2A5
:100D700000F2080109688BB2011D09688AB2016896
:100D8000084691B29AB2A3B220B4FFF701FF01B0B6
:100D90000020DDF800E001B0704700BF48170000F8
:100B900081B0CDF800E09FB203468DB296B2DDF889
:100BA00004800848FFF732FE4446AAB21946B3B2A1
:100BB000044810B480B4FFF7CFFE02B0DDF800E0C7
:080BC00001B0704700C00640BF
:10080C0081B0304988420CD12F4A30490A60304AB5
:10081C0030490A60304A31490A60314A31490A602C
:10082C004EE0314988420CD1304A28490A60304A9E
:10083C0028490A602F4A29490A602F4A29490A6027
:10084C003EE02E4988420CD12D4A20490A602D4A9F
:10085C0020490A602C4A21490A602C4A21490A6025
:10086C002EE02B4988420CD12A4A18490A602A4AA0
:10087C0018490A60294A19490A60294A19490A6023
:10088C001EE0284988420CD1274A10490A60274AA1
:10089C0010490A60264A11490A60264A11490A6021
:1008AC000EE0254988420BD1244A08490A60244AA3
:1008BC0008490A60234A09490A60234A09490A601F
:1008CC0001B0704700A00640190A00001400FF1F79
:1008DC00490B00001800FF1F310B00001C00FF1F0C
:1008EC00790B00002000FF1F00B006404D0A0000ED
:1008FC00E90A0000010B0000B90A000000C0064024
:10090C00850A0000D10A0000190B0000610B0000E1
:10091C0000D00640690A0000A10A0000E5090000A9
:10092C00350A000000A00E40C9090000A90C000007
:10093C002D0D00001D0C000000B00E40FD09000044
:0C094C00050C0000C10C0000D90C0000DC
:1009580085B0CDF800E001900291ADF80C20ADF81B
:100968001030BDF81440ADF814400698FFF700FFAA
:100978000198FFF7B3FE02990198FFF775FEBDF8DD
:100988000C100198FFF760FEBDF810100198FFF7F2
:100998003FFEBDF814100198FFF724FE0198FFF7F9
:1009A80027FE0198FFF72CFEDDF800E005B0704740
:1007780081B0CDF800E040F2000C83464FEA8C01CE
:100788000BEB01010968B1F1FF3F12D00BF1340105
:100798004FEA8C03C91809680A460BEB030109687C
:1007A80008461146FFF7F2FE0CF1010C1FFA8CFC0B
:0A07B800E4E7DDF800E001B070474F
:1005940082B0CDF800E080464FEA581202F007021C
:1005A400914608F01F04A24693010D4AD3184FF058
:1005B4000102A240019218460A460199FFF79EFFE4
:1005C4004FEA0933074AD3184FEA8A029C1808F401
:1005D400E06322681A432260DDF800E002B070474D
:0805E40000F00F4000900440FC
:1005000081B0CDF800E0FFF79BFFDDF800E001B01F
:02051000704732
:1004400083B0CDF800E006460C4615463046FFF76F
:10045000DFFF40F2FF1306EA030080090026224670
:100460002946202E39D24FF0010303FA06F402EA9E
:1004700004031F46A3422ED104031A4B1C19B300D8
:10048000E51801952C68184B04EA03032B60174B01
:1004900001EA0304019B1B6843EA0404019B1C60FE
:1004A00001F48033B3F5803F15D08401104B1B1944
:1004B0001433029301F400333BB1FC43029B1B68ED
:1004C00003EA0404029B1C6005E0029B1B6843EAEC
:1004D0000704029B1C60761CC3E7DDF800E003B054
:1004E000704700BF009004400000FFFFFFFF0000C6
:0404F00000F00F40C9
:1004100081B040F2FF1100EA01018909084600F2AB
:1004200009024FF0010101FA02F20449096841EAA8
:10043000020202490A6001B0704700BF38800440E0
:1006E40081B01849884204D1012252B216490A60E5
:1006F40026E01649884204D1012252B214490A6004
:100704001EE01449884204D1012252B212490A60FF
:1007140016E01249884204D1012252B210490A60FB
:100724000EE01049884204D1012252B20E490A60F7
:1007340006E00E49884203D1012252B20C490A60F4
:1007440001B0704700A00640A806904200B00640E1
:10075400AC06904200C00640B006904200D006406D
:10076400B406904200A00E402805904200B00E400E
:040774002C0590427E
:1006700085B0CDF800E08046894601AA1046FFF714
:1006800049FF164A904503D0154A904500D001E035
:10069000019800E002984FEA0912B0FBF2F291B221
:1006A00092B2130A9BB298F800201A4388F80020EF
:1006B00008F10103CAB21A7043014FEA0912B3FBF1
:1006C000F2F34A0192B29A1AD0B208F10A031A78E8
:1006D00002431A70DDF800E005B0704700A0064044
:0406E00000B0064020
:1005140081B0CDF800E00446FFF7EAFF40F2E8318D
:1005240000FB01F3194909680A0F1849096801F029
:100534007061090EC8B21549096801F47001090D0A
:10054400CDB21249096801F47021090CCEB2D1B2BE
:10055400491C09B259430F462360221D411C09B2AC
:10056400B7FBF1F1116004F20802691C09B2B7FB90
:10057400F1F1116004F20C02711C09B2B7FBF1F144
:100584001160DDF800E001B0704700BF4480044012
:0C04F40001480068704700BF1000FF1FA7
:1006500081B0841C23784FF6EF7212B203EA0202D3
:100660002270841C0B0122781A43227001B070475B
:1006180081B001F0020262B1841C01F00203227869
:100628001A432270841C01F0010322781A432270B5
:1006380007E0841C23784FF6FD7212B203EA020227
:06064800227001B07047B2
:0C05EC0081B002780A43027001B0704731
:1005F80081B0C21C117841F00401117001B070473C
:1006080081B0C21C117841F00801117001B0704727
:100DA00081B0CDF800E00D4D00F20C0109688CB265
:100DB00000F2080109688BB2011D09688AB2016856
:100DC000084691B29AB2A3B220B4FFF733FF01B044
:100DD0000020DDF800E001B0704700BFDC16000025
:100C340081B0CDF800E09FB203468DB296B2DDF8E4
:100C440004800848FFF7E0FD4446AAB21946B3B24F
:100C5400044810B480B4FFF77DFE02B0DDF800E074
:080C640001B0704700D006400A
:100DE00081B0CDF800E00D4D00F20C0109688CB225
:100DF00000F2080109688BB2011D09688AB2016816
:100E0000084691B29AB2A3B220B4FFF713FF01B023
:100E10000020DDF800E001B0704700BFDC160000E4
:100F480081B0CDF800E011E00846FFF7ABFF16E0EE
:100F58000846FFF7CBFF12E00846FFF7B5FF0EE0A3
:100F68000846FFF76DFF0AE0012008E00028EBD0F3
:100F78000128EDD00228EFD01028F1D0F4E7DDF8F1
:060F880000E001B070471B
:100EAC0081B0CDF800E0FFF7DBFE044A04490A608C
:100EBC000020DDF800E001B0704700BF850A00009B
:040ECC000C00FF1FF8
:100C6C0081B0CDF800E003460A48FFF7C9FD0A4AF7
:100C7C0040F2000104B402B440F20002194640F202
:100C8C0000030448FFF762FE02B0DDF800E001B09B
:0C0C9C00704700BF00C006404817000071
:100EF40081B0CDF800E0FFF765FE044A04490A60BA
:100F04000020DDF800E001B0704700BF690A00006E
:040F14000C00FF1FAF
:100BC80081B0CDF800E003460A48FFF71BFE0A4A49
:100BD80040F2000104B402B440F20002194640F2A7
:100BE80000030448FFF7B4FE02B0DDF800E001B0EE
:0C0BF800704700BF00D00640DC16000073
:100ED00081B0CDF800E0FFF777FE044A04490A60CC
:100EE0000020DDF800E001B0704700BF690A000093
:040EF0000C00FF1FD4
:100E480081B0CDF800E0FFF74FFF044A04490A607B
:100E58000020DDF800E001B0704700BF190A00006B
:040E68000C00FF1F5C
:100CF00081B0CDF800E003460A48FFF787FD0A4AB5
:100D000040F2000104B402B440F20002194640F27D
:100D100000030448FFF720FE02B0DDF800E001B058
:0C0D2000704700BF00A00640B4170000A0
:1011040081B0CDF800E00B490B48FFF70DFF0B4809
:101114000221FFF763FF40F6FE07C0F23D0700BF60
:1011240000BF7F1EFDD100BF00BF00BFDDF800E09F
:1011340001B070479C180000201800000000FF1F39
:100F2C0081B0CDF800E003460846FFF773FF184682
:0C0F3C00FFF796FFDDF800E001B0704701
:100E2000026806490A60011D0A6805490A6000F265
:100E300008010A6803490A60704700BF2800FF1FC5
:080E40002C00FF1F2400FF1F1E
:020E6C007047CD
:100FE00083B0CDF800E0024610460D228DF80820AF
:100FF0000A228DF809201FE0FFF73AFF23E002786C
:101000002AB10190FFF734FF0198401CF7E71AE07E
:1010100002782AB10190FFF72BFF0198401CF7E7F7
:1010200002AA1046FFF724FF0DF109021046FFF750
:101030001FFF08E0062007E00029DDD00129DED0EF
:101040000229E5D0F6E70020DDF800E003B07047A4
:100E700081B0CDF800E00178CCB2A0B2034C246878
:100E8000A0470020DDF800E001B070470C00FF1F14
:100A180081B0CDF800E081B20348FFF7DBFEDDF8D6
:0C0A280000E001B0704700BF00A00640D5
:1007DC0081B0ADF800100146BDF800000A1D137879
:1007EC00C3F3C01202B9F9E7CA1D107001B070470B
:100A4C0081B0CDF800E081B20348FFF7C1FEDDF8BC
:0C0A5C0000E001B0704700BF00B0064091
:100A840081B0CDF800E081B20348FFF7A5FEDDF8A0
:0C0A940000E001B0704700BF00C0064049
:100A680081B0CDF800E081B20348FFF7B3FEDDF8AE
:0C0A780000E001B0704700BF00D0064055
:1009C80081B0CDF800E081B20348FFF703FFDDF8FE
:0C09D80000E001B0704700BF00A00E401E
:1009FC0081B0CDF800E081B20348FFF7E9FEDDF8E5
:0C0A0C0000E001B0704700BF00B00E40D9
:1010DC0082B0CDF800E0FFF773FF012807D1FFF7CE
:1010EC0015FF8DF8040001A80021FFF773FFDDF850
:0610FC0000E002B07047A5
:100FCC0081B0CDF800E0FFF75DFFDDF800E001B087
:020FDC0070475C
:100E900081B0CDF800E0044C2468A047C0B2DDF872
:0C0EA00000E001B0704700BF2400FF1FFD
:100B480081B0CDF800E00348FFF738FEDDF800E09B
:080B580001B0704700A0064047
:1007C40081B0011D0A78C2F3401101B9F9E7C11DD6
:0807D4000978C8B201B07047BA
:100B300081B0CDF800E00348FFF760FEDDF800E08B
:080B400001B0704700A006405F
:0E07FC0081B0011D0978C1F3401001B07047B3
:100B780081B0CDF800E00348FFF71AFFDDF800E088
:080B880001B0704700A0064017
:0E09B80081B0011D0978C1F3801001B07047B5
:100AE80081B0CDF800E00348FFF768FEDDF800E0CC
:080AF80001B0704700B0064098
:100B000081B0CDF800E00348FFF778FEDDF800E0A3
:080B100001B0704700B006407F
:100AB80081B0CDF800E00348FFF77AFFDDF800E0E9
:080AC80001B0704700B00640C8
:100AD00081B0CDF800E00348FFF774FEDDF800E0D8
:080AE00001B0704700C00640A0
:100B180081B0CDF800E00348FFF76CFEDDF800E097
:080B280001B0704700C0064057
:100B600081B0CDF800E00348FFF726FFDDF800E094
:080B700001B0704700C006400F
:100AA00081B0CDF800E00348FFF78CFEDDF800E0F0
:080AB00001B0704700D00640C0
:1009E40081B0CDF800E00348FFF706FFDDF800E032
:0809F40001B0704700D006407D
:100A340081B0CDF800E00348FFF7BCFFDDF800E02B
:080A440001B0704700D006402C
:100CA80081B0CDF800E00348FFF788FDDDF800E0EB
:080CB80001B0704700A00E40DE
:100D2C0081B0CDF800E00348FFF762FDDDF800E08C
:080D3C0001B0704700A00E4059
:100C1C0081B0CDF800E00348FFF7C8FEDDF800E036
:080C2C0001B0704700A00E406A
:100C040081B0CDF800E00348FFF7DAFDDDF800E03D
:080C140001B0704700B00E4072
:100CC00081B0CDF800E00348FFF798FDDDF800E0C3
:080CD00001B0704700B00E40B6
:100CD80081B0CDF800E00348FFF76AFEDDF800E0D8
:080CE80001B0704700B00E409E
:100F180081B0CDF800E0FFF711FFDDF800E001B087
:020F2800704710
:100D440081B0CDF800E0044C2468A047C0B2DDF8BF
:0C0D540000E001B0704700BF2C00FF1F42
:1011B00090B072B697480190974802909748039074
:1011C000974804909748059097480690974807904D
:1011D000974808909748099097480A9097480B902D
:1011E00097480C90974998480D9098480E900D9804
:1011F00000F007000F9001F0010050B94CF22050B0
:10120000934908804DF62810088040F2D211914889
:1012100001809148007800F0010050B18F480078BB
:1012200000F0080020B18D49087840F008000870EF
:1012300021E08B48006840F00051894801608948EE
:10124000006800F48070B0B9864801686FF470508F
:1012500001EA000040F44071824801608148006862
:1012600040F480717F4801607E4801686FF400702F
:1012700001407C480160AA217B4801700D9800F074
:10128000100060B9794801786FF06000014077483C
:10129000017077480078012800D0FAE71CE00D982B
:1012A00000F01000C0B10E997248814208D9602147
:1012B0006E4801706E480078802800D0FAE70BE095
:1012C0006A4801786FF06000014068480170684822
:1012D0000078012800D0FAE7049967480160674860
:1012E00001686FF440200140029800F4402001435F
:1012F00062480160624801686FF440300140039821
:1013000000F4403001435E4801600F9830B10F98FF
:10131000012803D00F98022800D061E0019800F066
:10132000800050B9089800F0400028B10B9800F0F8
:101330000300002800D100E015E05248006840F4A6
:1013400000715048016050480168504801404E48C3
:101350000160069800F0040028B14D4801684B4830
:1013600001404B4801600A994A48017005994A4872
:101370000170059800F0040038B14848007800F08A
:101380001000002800D1F8E705E04448007800F09C
:10139000100000B1F9E74248007800F0BF01C9B27F
:1013A000069800F0FD0001433D480170079800F0E9
:1013B000E0013C48007800F01F000143394801700B
:1013C0000199394801700B99384801700F9802282B
:1013D00005D13348007840F0020131480170B8E08F
:1013E000019800F0800020B90B9800F0030000B1D4
:1013F00065E02448006840F40071224801602248FA
:1014000001682248014020480160069800F004006D
:1014100000F04EB80000000000000C0000000100C9
:101420000000140122000000240000000000000061
:101430000200000046000000000000000000000064
:10144000000000000000000007000000C0D4010000
:101450000E2005400020054000F0074002D0074064
:101460003C80044010D0034000E0074001E007400A
:1014700003E00740803801004480044000700440CD
:10148000048004403880044048900440FFF8FFFE88
:101490004C9004400840064000400640064006408C
:1014A0000140064003400640005006400C40064004
:1014B00028B17A4801687A480140784801600A9961
:1014C000784801707848007800F0BF01C9B20698EA
:1014D00000F0FD00014374480170019973480170E8
:1014E0000B99734801700F98072805D1059840F0B3
:1014F00080017048017002E005996E4801700698FD
:1015000000F0040048B10B9800F0030028B96A48C5
:10151000007800F0020000B9F9E7059800F0040037
:1015200038B16548007800F01000002800D1F8E7D5
:1015300005E06148007800F0100000B1F9E7079875
:1015400000F0E0015D48007800F01F0001435B48B7
:101550000170089800F0BF0159480170099800F027
:10156000BF0158480170089800F0400028B1544865
:10157000007840F04001524801700F98052806D1CC
:101580004948007840F00201474801701BE00F987D
:10159000062803D00F98072800D014E049480078A7
:1015A00040F04001474801704348007800F0400097
:1015B00000B9F9E70F98072805D13E48007800F0F8
:1015C0003F013C4801700F9818B10F98032800D0D4
:1015D0002CE03948007800F00C0000B1F9E73A48F7
:1015E000006840F00101384801604FF000013748C1
:1015F00001604FF08001364801604FF00501354829
:1016000001604FF00101324801603148006800F08C
:10161000800000B9F9E700212D4801602A480168DF
:101620006FF001000140284801602AE00F9801286E
:1016300003D00F98022800D007E01F48007800F080
:101640000C00042800D0F8E71BE00F98042806D00F
:101650000F98062803D00F98052800D007E01648F9
:10166000007800F00C00082800D0F8E709E00F9897
:10167000072806D11048007800F00C000C2800D094
:10168000F8E7154801686FF00F0001400C9800F072
:101690000F0001431048016010B070474C900440A7
:1016A000FFF8FFFE0840064001400640005006409B
:1016B0000C400640004006400640064003400640FD
:1016C00004400640054006403880044008000440BD
:0C16D00000000440040004404880044076
:1011780081B002490248016001B07047C0D4010043
:041188001000FF1F35
:0811440081B0FEE701B0704725
:10114C0081B072B60849086840F47000086000BFAE
:10115C0000BF00BF00BFF1EE100A40F44000E1EE0A
:0C116C00100A62B601B0704788ED00E088
:1018A80000B5DFF814B0DFF814A0DFF814C0FFF7B4
:1018B800CBFB00BD704700BF0000FF1F0C00FF1FDF
:0418C8009018000074
:1019280000B5DFF810B0DFF810A0FFF797FB00BD97
:0C193800704700BF0000FF1F3000FF1FC1
:100400000000000000000000FFFFFFFF02FDFFFFF3
:1016DC005103000050030000FFFFFFFF000000005B
:1016EC0000000000000000000000000000000000EE
:1016FC0000000000000000000000000000000000DE
:10170C00000000000000080000000800FFFFFFFFC1
:10171C0000000000000000000000000000000000BD
:10172C0000000000000000000000000000000000AD
:0C173C00000000000000000000000000A1
:101748006303000062030000FFFFFFFF00000000CA
:101758000000000000000000000000000000000081
:101768000000000000000000000000000000000071
:10177800000000000000080000000800FFFFFFFF55
:101788000000000000000000000000000000000051
:101798000000000000000000000000000000000041
:0C17A80000000000000000000000000035
:1017B4003103000030030000FFFFFFFF00000000C2
:1017C4000000000000000000000000000000000015
:1017D4000000000000000000000000000000000005
:1017E400000000000000080000000800FFFFFFFFE9
:1017F40000000000000000000000000000000000E5
:1018040000000000000000000000000000000000D4
:0C181400000000000000000000000000C8
:10182000FFFFFFFFFFFFFFFFFFFFFFFFFFFFFFFFC8
:10183000FFFFFFFFFFFFFFFFFFFFFFFFFFFFFFFFB8
:10184000FFFFFFFFFFFFFFFFFFFFFFFFFFFFFFFFA8
:10185000FFFFFFFFFFFFFFFFFFFFFFFFFFFFFFFF98
:10186000FFFFFFFFFFFFFFFFFFFFFFFFFFFFFFFF88
:10187000FFFFFFFFFFFFFFFFFFFFFFFFFFFFFFFF78
:1018800080250000000000000000000000000000B3
:0C189000496E697469616C697A656400D6
:0C189C00850A0000D10A0000190B0000B2
:00000001FF
