:1000000076EF07F00000000000EF00F000000000B5
:0A0010000000000000000000F3D71C
:0A001C00000E80B0010E006E12000D
:100026001DCF01F00F0122A302D02299228901C01F
:0400360000F01200C4
:0A003A00000E82BA010E006E1200E3
:0A004400000E82B6010E006E1200DD
:0A004E00000E82B8010E006E1200D1
:0A005800000EA4BA010E006E1200A3
:0A006200000E86B0010E006E1200C1
:0A006C00000E81B0010E006E1200BC
:0A007600000E82B8010E006E1200A9
:0A008000000E82B2010E006E1200A5
:0A008A00000E84B2010E006E120099
:0A009400000E82B0010E006E120093
:0A009E00000E84B0010E006E120087
:0C00A8004FB002D08B9A01D08B8A12005E
:0C00B4004FB002D08F9001D08F8012005E
:0C00C0004FB002D08A9401D08A84120054
:0C00CC004FB002D08D9401D08D84120042
:0C00D8004FB002D08B9601D08B86120036
:0C00E4004FB002D08B9801D08B88120026
:0C00F0004FB002D08F9401D08F8412001A
:1000FC00AECF01F0ABA202D0AB98AB8801C000F040
:02010C001200DF
:0A010E00000E9EBA010E006E1200F2
:0A011800000EACB2010E006E1200E2
:0C0122004FB002D08F9201D08F821200EB
:0C012E004FB002D08B9601D08B861200DF
:0C013A004FB002D08B9801D08B881200CF
:0A014600000E82BE010E006E1200D2
:0A015000000E82B6010E006E1200D0
:0A015A00000E82B8010E006E1200C4
:0A016400000E82B6010E006E1200BC
:0A016E00000E82BE010E006E1200AA
:0A017800000E80B4010E006E1200AC
:0A018200000E82B6010E006E12009E
:0A018C00000E82B8010E006E120092
:0A019600000E86B4010E006E120088
:0A01A000000E86B2010E006E120080
:0A01AA00000E81B4010E006E120079
:0A01B400000E84B4010E006E12006C
:0A01BE00000E84B6010E006E120060
:0A01C800000E82B4010E006E12005A
:0A01D200000E80B2010E006E120054
:0A01DC00000E80B8010E006E120044
:0A01E600000E82B6010E006E12003A
:0A01F000000E82BC010E006E12002A
:0A01FA00000E82BA010E006E120022
:0C020400000E0F0121B3010E006E12006D
:0A021000000E82B8010E006E12000D
:0A021A00000E82BA010E006E120001
:0A022400000E82BC010E006E1200F5
:0C022E004FB002D08B9801D08B881200DA
:0A023A00000E82B8010E006E1200E3
:0A024400000E82B6010E006E1200DB
:0A024E00000E81B2010E006E1200D6
:0C0258004FB002D08B9A01D08B8A1200AC
:0C0264004FB002D08A9001D08A801200B6
:0C0270004FB002D08B9601D08B8612009C
:0C027C004FB002D08B9E01D08B8E120080
:0C0288004FB002D08B9801D08B88120080
:0C0294004FB002D08B9C01D08B8C12006C
:0C02A0004FB002D08B9401D08B84120070
:0E02AC00ACB202D00000FCD74FC0ADFF120074
:0C02BA004FB002D08B9201D08B8212005A
:1002C6000F0121B302D00000FBD74FC01CFF120064
:0C02D6004FB002D08B9801D08B88120032
:0C02E2004FB002D0899001D0898012003A
:0C02EE004FB002D08D9001D08D80120026
:0C02FA004FB002D0899201D0898212001E
:0C0306004FB002D08B9601D08B86120005
:0C0312004FB002D08B9C01D08B8C1200ED
:0C031E004FB002D08B9E01D08B8E1200DD
:0C032A004FB002D08D9601D08D861200DD
:0C0336004FB002D0899401D089841200DD
:0C0342004FB002D08B9801D08B881200C5
:0C034E004FB002D08A9201D08A821200C7
:0C035A004FB002D08B9001D08B801200BD
:0C0366004FB002D08D9201D08D821200A9
:0C0372004FB002D08B9601D08B86120099
:0C037E004FB002D08B9601D08B8612008D
:0C038A004FB002D08B9A01D08B8A120079
:0C0396004FB002D0899801D08988120075
:1003A200F250026EF29E0500FF6A0150FE6E00508E
:0803B200FD6E02BEF28E120086
:1003BA00C60E316E020E326E4F0E336E000E346E62
:1003CA00260E296E000E2A6E000E2B6E000E2C6E63
:1003DA00580E216E000E226E000E236E000E246E41
:1003EA00040E256E020E266E000E276E000E286E73
:1003FA000F01218B900E226F98849892A4AA03D0A1
:08040A001DCF00F0FBD712002A
:10041200AC0E316E020E326E4F0E336E000E346E23
:10042200FC0E296E000E2A6E000E2B6E000E2C6E34
:100432000E0E216E010E226E000E236E000E246E31
:10044200180E256E010E266E000E276E000E286E07
:10045200AC8A900EAB6E948E949C9EAA03D0AECFC3
:0604620000F0FBD71200C0
:1004680049C0F6FF4AC0F7FF4BC0F8FF0900F5CFB7
:100478003DF00900F5CF3EF00900F5CF3FF0090047
:10048800F5CF40F0040E4924F66E000E4A20F76EB0
:10049800000E4B20F86E0900F5CF35F00900F5CFB6
:1004A80036F00900F5CF37F00900F5CF38F0080E1F
:1004B8004924F66E000E4A20F76E000E4B20F86EA7
:1004C8000900F5CF39F00900F5CF3AF00900F5CF6A
:0A04D8003BF00900F5CF3CF01200E4
:0604E200050E006E120081
:1004E80021D0CF0EAF6EAC9490DF6AD0670EAF6E9E
:1004F800AC948BDF65D0CF0EAF6EAC8486DF60D056
:10050800670EAF6EAC8481DF5BD0440EAF6EAC84F7
:100518007CDF56D0220EAF6EAC8477DF51D0060E4A
:10052800006E57D0000E006E4C1808E100504B18B2
:1005380005E1120E4A1802E14950C00AD2E0000E45
:10054800006E4C1808E100504B1805E1250E4A18BA
:1005580002E14950800ACAE0000E006E4C1808E11A
:1005680000504B1805E14B0E4A1802E14950000AA9
:10057800C2E0000E006E4C1808E100504B1805E16F
:10058800960E4A1802E14950000ABAE0000E006EC1
:100598004C1808E100504B1805E1E10E4A1802E139
:1005A8004950000AB2E04C50000A08E14B50010AD9
:1005B80005E14A50C20A02E14950000AABE0AFD750
:1005C800AC0E2D6E020E2E6E4F0E2F6E000E306E7C
:0405D800006A1200A3
:1005DC0021D0CF0EAF6EAC9416DF6AD0670EAF6E23
:1005EC00AC9411DF65D0CF0EAF6EAC840CDF60D055
:1005FC00670EAF6EAC8407DF5BD0440EAF6EAC847D
:10060C0002DF56D0220EAF6EAC84FDDE51D0060E4A
:10061C00006E57D0000E006E4C1808E100504B18BD
:10062C0005E1120E4A1802E14950C00AD2E0000E50
:10063C00006E4C1808E100504B1805E1250E4A18C5
:10064C0002E14950800ACAE0000E006E4C1808E125
:10065C0000504B1805E14B0E4A1802E14950000AB4
:10066C00C2E0000E006E4C1808E100504B1805E17A
:10067C00960E4A1802E14950000ABAE0000E006ECC
:10068C004C1808E100504B1805E1E10E4A1802E144
:10069C004950000AB2E04C50000A08E14B50010AE4
:1006AC0005E14A50C20A02E14950000AABE0AFD75B
:1006BC00AC0E2D6E020E2E6E4F0E2F6E000E306E87
:0406CC00006A1200AE
:1006D00021D0CF0EAF6EAC949CDE6AD0670EAF6EA9
:1006E000AC9497DE65D0CF0EAF6EAC8492DE60D056
:1006F000670EAF6EAC848DDE5BD0440EAF6EAC8403
:1007000088DE56D0220EAF6EAC8483DE51D0060E4A
:10071000006E57D0000E006E4C1808E100504B18C8
:1007200005E1120E4A1802E14950C00AD2E0000E5B
:10073000006E4C1808E100504B1805E1250E4A18D0
:1007400002E14950800ACAE0000E006E4C1808E130
:1007500000504B1805E14B0E4A1802E14950000ABF
:10076000C2E0000E006E4C1808E100504B1805E185
:10077000960E4A1802E14950000ABAE0000E006ED7
:100780004C1808E100504B1805E1E10E4A1802E14F
:100790004950000AB2E04C50000A08E14B50010AEF
:1007A00005E14A50C20A02E14950000AABE0AFD766
:1007B000AC0E2D6E020E2E6E4F0E2F6E000E306E92
:0407C000006A1200B9
:1007C40038D00F0120870D0E1F6F040E1E6F218578
:1007D400F2DD7DD00F012087060E1F6F820E1E6F83
:1007E4002185E9DD74D00F012087030E1F6F400EB1
:1007F4001E6F2185E0DD6BD00F012087010E1F6F76
:10080400A00E1E6F2185D7DD62D00F012087010E57
:100814001F6F150E1E6F2185CEDD59D00F01208765
:100824001F6B8A0E1E6F2185C6DD51D0060E006E29
:1008340057D0000E006E4C1808E100504B1805E12B
:10084400120E4A1802E14950C00ABBE0000E006EC5
:100854004C1808E100504B1805E1250E4A1802E136
:100864004950800AB7E0000E006E4C1808E10050B1
:100874004B1805E14B0E4A1802E14950000AB3E057
:10088400000E006E4C1808E100504B1805E1960E5E
:100894004A1802E14950000AAFE0000E006E4C18FD
:1008A40008E100504B1805E1E10E4A1802E14950F5
:1008B400000AABE04C50000A08E14B50010A05E184
:1008C4004A50C20A02E14950000AA8E0AFD7C60E56
:1008D4002D6E020E2E6E4F0E2F6E000E306E006ABD
:0208E400120000
:0C08E60035C000F036C001F059DD1200F2
:0C08F20039C000F03AC001F053DD1200E4
:1008FE0049C04CF04AC04DF04BC04EF021D0CF0E47
:10090E00AF6EAC947FDDD9D0670EAF6EAC947ADD4E
:10091E00D4D0CF0EAF6EAC8475DDCFD0670EAF6E78
:10092E00AC8470DDCAD0440EAF6EAC846BDDC5D026
:10093E00220EAF6EAC8466DDC0D0050E006EBFD049
:10094E004CC0F6FF4DC0F7FF4EC0F8FF0900F5CFC3
:10095E0001F00900F5CF02F00900F5CF03F0090010
:10096E00F5CF04F0000E006E041808E100500318D5
:10097E0005E1120E021802E10150C00AC0E04CC09F
:10098E00F6FF4DC0F7FF4EC0F8FF0900F5CF01F09E
:10099E000900F5CF02F00900F5CF03F00900F5CFFD
:1009AE0004F0000E006E041808E10050031805E173
:1009BE00250E021802E10150800AA6E04CC0F6FF97
:1009CE004DC0F7FF4EC0F8FF0900F5CF01F009004A
:1009DE00F5CF02F00900F5CF03F00900F5CF04F0D2
:1009EE00000E006E041808E10050031805E14B0ECE
:1009FE00021802E10150000A8CE04CC0F6FF4DC017
:100A0E00F7FF4EC0F8FF0900F5CF01F00900F5CF52
:100A1E0002F00900F5CF03F00900F5CF04F0000E47
:100A2E00006E041808E10050031805E1960E021836
:100A3E0002E10150000AD8B471D74CC0F6FF4DC088
:100A4E00F7FF4EC0F8FF0900F5CF01F00900F5CF12
:100A5E0002F00900F5CF03F00900F5CF04F0000E07
:100A6E00006E041808E10050031805E1E10E0218AB
:100A7E0002E10150000AD8B456D74CC0F6FF4DC063
:100A8E00F7FF4EC0F8FF0900F5CF01F00900F5CFD2
:100A9E0002F00900F5CF03F00900F5CF04F0045081
:100AAE00000A08E10350010A05E10250C20A02E100
:100ABE000150000AD8B43CD740D7000E006E120089
:100ACE002FC0E1FF30C0E2FF49C0E9FF4AC0EAFF94
:100ADE00EECFE6FF2DC000F02EC001F05BDC006A09
:020AEE001200F4
:020AF0001200F2
:100AF20049C04CF04AC04DF04BC04EF021D0CF0E51
:100B0200AF6EAC9485DCD9D0670EAF6EAC9480DC4E
:100B1200D4D0CF0EAF6EAC847BDCCFD0670EAF6E7D
:100B2200AC8476DCCAD0440EAF6EAC8471DCC5D026
:100B3200220EAF6EAC846CDCC0D0050E006EBFD04E
:100B42004CC0F6FF4DC0F7FF4EC0F8FF0900F5CFCD
:100B520001F00900F5CF02F00900F5CF03F009001A
:100B6200F5CF04F0000E006E041808E100500318DF
:100B720005E1120E021802E10150C00AC0E04CC0A9
:100B8200F6FF4DC0F7FF4EC0F8FF0900F5CF01F0A8
:100B92000900F5CF02F00900F5CF03F00900F5CF07
:100BA20004F0000E006E041808E10050031805E17D
:100BB200250E021802E10150800AA6E04CC0F6FFA1
:100BC2004DC0F7FF4EC0F8FF0900F5CF01F0090054
:100BD200F5CF02F00900F5CF03F00900F5CF04F0DC
:100BE200000E006E041808E10050031805E14B0ED8
:100BF200021802E10150000A8CE04CC0F6FF4DC021
:100C0200F7FF4EC0F8FF0900F5CF01F00900F5CF5C
:100C120002F00900F5CF03F00900F5CF04F0000E51
:100C2200006E041808E10050031805E1960E021840
:100C320002E10150000AD8B471D74CC0F6FF4DC092
:100C4200F7FF4EC0F8FF0900F5CF01F00900F5CF1C
:100C520002F00900F5CF03F00900F5CF04F0000E11
:100C6200006E041808E10050031805E1E10E0218B5
:100C720002E10150000AD8B456D74CC0F6FF4DC06D
:100C8200F7FF4EC0F8FF0900F5CF01F00900F5CFDC
:100C920002F00900F5CF03F00900F5CF04F004508B
:100CA200000A08E10350010A05E10250C20A02E10A
:100CB2000150000AD8B43CD740D7000E006E120093
:100CC2001CD043C049F044C04AF045C04BF016DE88
:100CD2001ED043C049F044C04AF045C04BF008DF83
:100CE20016D043C049F044C04AF045C04BF071EC05
:100CF20002F00DD0010E006E0AD04250000AE1E06F
:100D02004250010AE6E04250020AEBE0F3D7120039
:100D12002CD043C049F044C04AF045C04BF046C015
:100D22004CF05BDC2FD043C049F044C04AF045C0D0
:100D32004BF046C04CF0CBDC25D043C049F044C058
:100D42004AF045C04BF046C04CF03BDD1BD043C0DF
:100D520049F044C04AF045C04BF046C04CF074EC38
:100D620002F010D0010E006E0DD04250000AD1E008
:100D72004250010AD8E04250020ADFE04250100A13
:060D8200E6E0F0D71200CC
:040D8800AEDD1200CA
:040D8C00B2DD1200C2
:100D900042C045F043C046F00D0E476E0A0E486E45
:100DA00031D045C049F046C04AF091DE35D045C04B
:100DB000E9FF46C0EAFFEE5208E045C049F046C0F0
:100DC0004AF085DE454A462AF2D726D045C0E9FFDB
:100DD00046C0EAFFEE5208E045C049F046C04AF07E
:100DE00076DE454A462AF2D7470E496E000E4A6E15
:100DF0006EDE480E496E000E4A6E69DE0DD0060E9C
:100E0000006E0BD04450000ACCE04450010ACFE001
:0C0E10004450020ADBE0F3D7006A120035
:100E1C0045C049F046C04AF047C04BF034EC02F0F4
:100E2C0042C049F043C04AF044C04BF05BDE1200B4
:100E3C00426A900E436E0F0E446E000E456E3BDF01
:100E4C00010E426E800E436E250E446E000E456EF2
:100E5C00466E59DF090E0B6E1E0E0C6EE40E0D6EF7
:100E6C000D2EFED70C2EFCD70B2EFAD7000012003D
:100E7C000900F5CFE6FF0006FBE10106F9E11200DF
:100E8C00240E426E0F0E436E000E446E840E456EA1
:100E9C000F0E466E000E476EBBDF150E426E000E37
:100EAC00436E020E446E6EDF090E0B6E1E0E0C6E40
:100EBC00E40E0D6E0D2EFED70C2EFCD70B2EFAD792
:040ECC000000120010
:100ED0005DDF010E001809E157DF00C041F0410E4F
:0C0EE000426E000E436E446A53DF1200A5
:100EEC00490E156E6E0E166E690E176E740E186E18
:100EFC00690E196E610E1A6E6C0E1B6E690E1C6EED
:100F0C007A0E1D6E650E1E6E640E1F6E206A90DFCB
:080F1C00B7DFD8DFFED7FFD7D5
:100F2400E2024F005A034F00EE024F0070024F00DE
:100F3400D6024F0058024F00BA024F0064024F001D
:100F44007C024F0094024F0072034F002E024F00A8
:100F54001C000000940000009E00000044000000FB
:100F64004E000000FA010000800000006C00000048
:100F740046010000F0010000E601000076000000D8
:0C0F8400AC024F00FC0000000E01000059
:040F900080250000B8
:020000040030CA
:0E00000015137F7CF98B91FFFFC0FFE0FF40DE
:00000001FF
